:020000040800F2
:10000000FF7F0120B50C0008000000000000000088
:1000100000000000000000000000000000000000E0
:1000200000000000000000000000000000000000D0
:10003000000000000000000000000000A91B0008F4
:1000400000000000000000000000000000000000B0
:1000500000000000000000000000000000000000A0
:100060000000000000000000000000000000000090
:100070000000000000000000000000000000000080
:100080000000000000000000000000000000000070
:100090000000000000000000000000000000000060
:1000A0000000000000000000000000000000000050
:1000B0000000000000000000000000000000000040
:1000C0000000000000000000000000000000000030
:1000D0000000000000000000712300080000000084
:1000E0000000000000000000000000000000000010
:1000F0000000000000000000000000000000000000
:1001000000000000000000000000000000000000EF
:1001100000000000000000000000000000000000DF
:1001200000000000000000000000000000000000CF
:1001300000000000000000000000000000000000BF
:1001400000000000000000000000000000000000AF
:10015000000000000000000000000000000000009F
:10016000000000000000000000000000000000008F
:10017000000000000000000000000000000000007F
:10018000000000000000000000000000000000006F
:04019000000000006B
:1001940080B584B000AF78600B46FB701346BB702B
:1001A4000023FB73AA23BB7310237B731A4B1B68B6
:1001B400184602F0D4F90346DBB2FB7007F10D01D7
:1001C4004FF0FF330122154801F0D0FE0346FB73C4
:1001D40007F10E014FF0FF330122104801F0C6FE73
:1001E4000346FB73F91C4FF0FF3301220B4801F067
:1001F400BDFE0346FB73084B1968FB781A464FF0A3
:10020400FF33064801F0B2FE0346FB73FB7B18463E
:100214001037BD4680BD00BF0000002080000020D4
:1002240080B586B000AF78600B46FB701346BB7098
:100234000023FB750023BB75AA237B7520233B7524
:10024400294B1B683B613B699BB2C3F30B03FB81E6
:100254003B691B0CBB81BB7D03337A681344FA8969
:10026400D2B21A70BB7D0133BB75FB891B0A99B2EC
:10027400BB7D03337A681344CAB21A70BB7D013361
:10028400BB75BB7D03337A681344BA89D2B21A7042
:10029400BB7D0133BB75BB891B0A99B2BB7D03339C
:1002A4007A681344CAB21A70BB7D0133BB757B688C
:1002B4003A7D1A707B6801337A7D1A707B68023349
:1002C400BA7D1A70BB7D0333FB70FA784FF0FF33AD
:1002D4007968064801F04AFE0346FB75FB7D184623
:1002E4001837BD4680BD00BF002004E08000002018
:1002F40080B584B000AF78600B46FB701346BB70CA
:100304000023FB737B681B78BB73BB7BFF2B05D17E
:1003140000F0C6FE0346FB73FB7B5FE007F10E03B0
:10032400184600F003FF0346FB73FB7B002B1ED132
:100334000023FB70FB78072B38D8BB7B1A46FB786D
:1003440042FA03F303F00103002B06D0FB780333D6
:100354007A681344AA221A7005E0FB7803337A689A
:10036400134400221A70FB780133FB70E2E7002388
:10037400FB70FB78072B19D8BB7B1A46FB7842FA33
:1003840003F303F00103002B06D0FB7803337A68F0
:100394001344FF221A7005E0FB7803337A68134490
:1003A40000221A70FB780133FB70E2E77B6830228D
:1003B4001A707B680133AA221A707B680233FA78B8
:1003C4001A70FB780333FB70FA784FF0FF337968C7
:1003D400044801F0CBFD0346FB73FB7B1846103742
:1003E400BD4680BD8000002080B584B000AF786039
:1003F4000B46FB701346BB700023FB730023BB60EA
:100404004F4B1B78002B02D0022B5BD093E07B6810
:100414001B781A467B6801331B781B0213437A68E6
:1004240002321278120413437A68033212781206E5
:100434001343BB604349B86800F0A6F97B684022C7
:100444001A707B680133AA221A700123FB707B683F
:100454000233FA781A707B6803333A4A12781A70B6
:10046400FB780333FB70FA784FF0FF337968364832
:1004740001F07CFD334800F059FE0346FB73FB7B1F
:10048400002B55D17B6840221A707B680133AA2265
:100494001A700123FB707B680233FA781A707B6848
:1004A4000333284A12781A70FB780333FB70FA7806
:1004B4004FF0FF337968244801F058FD204B0222A5
:1004C4001A7035E0214B1B68FA781946786800F0F9
:1004D4009BFE0346FB731D4B1A68FB7813441B4AAF
:1004E4001360FB7B002B16D17B6840221A707B685B
:1004F4000133AA221A700023FB707B680233FA7856
:100504001A70FB780333FB70FA784FF0FF33796885
:100514000D4801F02BFDBB78002B0BD10B4B0C4A83
:100524001A60074B00221A70064B00221A7001E071
:1005340000BF00E000BFFB7B18461037BD4680BDFE
:100544007000002071000020800000204C0000207A
:100554000080000880B483B000AF78600B46FB7065
:100564001346BB70002318460C37BD4680BC704749
:1005740080B584B000AF78600B46FB701346BB7047
:100584000123FB7007F10F03184600F04BFF7B6853
:1005940060221A707B680133AA221A707B680233C6
:1005A400FA781A707B680333FA7B1A70FB78DA1CCA
:1005B4004FF0FF337968044801F0D8FC0023184653
:1005C4001037BD4680BD00BF8000002080B584B0D8
:1005D40000AF78600B46FB701346BB700023FB73BF
:1005E4000823FB7000237B737B7B072B18D807F150
:1005F4000E0207F10D031146184600F025FF0346CD
:10060400FB737B7B03337A681344BA7B1A70FB7BDE
:10061400002B04D17B7B0133DBB27B73E4E700BFA7
:10062400FB7B002B15D1FB780333FB707B687022B6
:100634001A707B680133AA221A707B680233FA7835
:100644001A70FA784FF0FF3379680E4801F08EFC87
:1006540013E00023FB707B6870221A707B680133FF
:10066400FF221A707B680233FA781A70FA784FF016
:10067400FF337968034801F079FCFB7B1846103797
:10068400BD4680BD8000002080B584B000AF786096
:100694000B46FB701346BB700023FB730023BB7334
:1006A40000233B737B681B78BB737B685B783B736D
:1006B400BB7B7B7307F10D03184600F0D7FF03469D
:1006C400FB73FB7B002B06D107F10C03184600F0EB
:1006D40009FF0346FB73FB7B002B14D10023FB7043
:1006E4007B6870221A707B680133AA221A707B68B7
:1006F4000233FA781A704FF0FF33032279680E48F8
:1007040001F034FC13E00023FB707B6870221A7044
:100714007B680133FF221A707B680233FA781A70FF
:100724004FF0FF3303227968034801F01FFCFB7B81
:1007340018461037BD4680BD8000002080B582B0C9
:1007440000AF78600B46FB701346BB700023FB7050
:100754007B6880221A707B680133AA221A707B6836
:100764000233FA781A704FF0FF3303227968054890
:1007740001F0FCFB00F0A8FA002318460837BD4638
:1007840080BD00BF8000002080B487B000AF7860D7
:1007940039600023FB7500233B610023FB733B6836
:1007A40000221A700223FB73FB7B072B1AD83B68C9
:1007B4001A78FB7B012101FA03F3DBB21343DAB2AB
:1007C4003B681A70FB7B0D4A52F823303A69134494
:1007D4003B617A683B699A4203D3FB7B0133FB7329
:1007E400E2E700BFFB7B072B01D90123FB75FB7DEF
:1007F40018461C37BD4680BC704700BFB8260008A9
:1008040090B5C7B002AF07F58873A3F20D130022A9
:100814001A7007F5877207F20F1107F20D131846C5
:1008240000F074F897F80E311A4607F10C014FF0F6
:10083400FF33344801F035FC07F10803184600F093
:1008440087F807F10C0407F5877207F20F1107F216
:100854000D103B1D0093234600F098F807F58873AC
:10086400A3F584731A6807F58873A3F586731B6868
:100874009A420FD107F5867207F20F1311461846F4
:1008840000F0A5F803461A4607F58873A3F20D1382
:100894001A7005E007F58873A3F20D1304221A7089
:1008A40007F58873A3F20D131B78002B1BD197F85F
:1008B4000C31154ADB0013445B68002B13D097F806
:1008C4000C31114ADB0013445B6897F80E1197F85A
:1008D4000D2107F10C00984703461A4607F5887363
:1008E400A3F20D131A7007F58873A3F20D131B7886
:1008F400002B88D0F91C4FF0FF330122014801F08E
:1009040035FB80E7800000200400002080B584B01F
:1009140000AFF860B9607A604FF0FF330122F968E4
:100924000A4801F0BEFB4FF0FF330122B9680748C3
:1009340001F0B7FB4FF0FF3301227968034801F05F
:10094400B0FB00BF1037BD4680BD00BF8000002053
:1009540080B584B000AF786007F10C014FF0FF332D
:100964000422094801F09DFBFB7B1A06BB7B1B0498
:100974001A437B7B1B0213433A7B1A437B681A603E
:1009840000BF1037BD4680BD8000002080B584B014
:1009940000AFF860B9607A603B60BA690121F86819
:1009A40000F0B0FABA690121B86800F079FABA69BE
:1009B4000121786800F074FA7B681B78BA691946DB
:1009C400386800F06DFA00BF1037BD4680BD80B4B2
:1009D40085B000AF786039600023FB730023BB73DC
:1009E400104B1B78BA7B9A420FD2BB7B0E4A12F88B
:1009F40033207B681B789A4203D13B68BA7B1A7018
:100A040003E0BB7B0133BB73EAE7064B1B78BA7B7D
:100A14009A4201D10523FB73FB7B18461437BD466C
:100A240080BC7047DF2600080400002080B500AFBA
:100A3400054801F0E1F801F00BF9012001F0ECF8B0
:100A440001F0BEF800BF80BD40420F0080B582B007
:100A540000AF7860786800F051FF0346002B0CBFAC
:100A640001230023DBB218460837BD4680BD80B59C
:100A740084B004AF00230293002301930223009364
:100A84004FF4165300220021044801F007F90348EB
:100A940001F0B8F900BFBD4680BD00BF8000002052
:100AA40080B584B002AF78600023019300230093E3
:100AB400002300220021786800F04EFE786800F0E0
:100AC4006CFE00BF0837BD4680BD80B500AFFF2077
:100AD40001F058F801F040F8FF21262000F0FAFF59
:100AE40000BF80BD80B500AF00F0AEF900BF80BD8F
:100AF40080B500AF00F098FD00BF80BD80B588B020
:100B040000AF3B1D0D222549184600F04FF8FFF7B2
:100B1400DCFFFFF7EDFF3B1D1846FFF7C1FFFFF7B2
:100B2400A6FFFFF7DFFFFFF781FF01F0ADF8F861E3
:100B340001F0AAF80246FB6903339A4234BF012349
:100B44000023DBB2002B1AD03B1D1846FFF77EFFB3
:100B54000346012B0CBF01230023DBB2002BE7D09B
:100B64000F4B7B61786901F0FAFC02464FF0FF33CA
:100B740079690C4801F0FAF9FFF742FED8E70A4B0D
:100B8400BB61B86901F0EBFC02464FF0FF33B96971
:100B9400044801F0EBF900F097F8FEE70008024082
:100BA4007C280008800000209828000880B485B0C4
:100BB40000AFF860B9601346FB71FB68BA689A60CD
:100BC400FB68FA791A73FB6818461437BD4680BC73
:100BD4007047000080B487B000AF1A4A1A4BD31A8A
:100BE400FB601A4A1A4BD31ABB60174B7B60002375
:100BF4003B613A69FB689A4208D27A683B691344BC
:100C040000221A703B6901333B61F2E7104B7B60B1
:100C1400104B3B6000237B617A69BB689A420BD21C
:100C24003A687B691A4479687B690B4412781A70B4
:100C34007B6901337B61EFE700BF1C37BD4680BC95
:100C4400704700BFD4030020700000207000002013
:100C5400000000207025000880B582B000AF0C4A67
:100C64000C4BD31A9B103B6000237B607A683B6873
:100C74009A4208D2074A7B6852F8233098477B6827
:100C840001337B60F2E700BF0837BD4680BD00BF7B
:100C9400382D0008342D000880B400AF034B1B68C6
:100CA4009D4600BFBD4680BC704700BF00000008E1
:100CB40080B500AFFFF7F0FFFFF78CFFFFF7CCFF25
:100CC400FFF71CFF00BF80BD80B582B000AF4FF4BA
:100CD400004000F013F8074B1B687B60786800F055
:100CE4001BF8054B1B683B603B68984700BF0837FF
:100CF400BD4680BD008000080480000880B483B035
:100D040000AF7860034A7B68136000BF0C37BD46B0
:100D140080BC704708ED00E080B483B000AF786019
:100D24007B689D4600BF0C37BD4680BC704780B4CD
:100D340087B000AFF860B9607A6000237B617A699C
:100D44007B689A420BD2BA687B691A44F9687B695A
:100D54000B4412781A707B6901337B61EFE700BFA3
:100D64001C37BD4680BC704780B400AF044B1B6C7D
:100D7400034A43F40033136400BFBD4680BC70478C
:100D84000038024080B400AF044B1B6B034A43F0AD
:100D94000103136300BFBD4680BC704700380240A6
:100DA40080B400AF044B1B6B034A43F0020313638C
:100DB40000BFBD4680BC70470038024080B400AF1D
:100DC400044B1B6B034A43F00403136300BFBD468B
:100DD40080BC70470038024080B400AF044B1B6BEA
:100DE400034A43F00803136300BFBD4680BC704749
:100DF4000038024080B400AF044B1B6B034A43F03D
:100E04001003136300BFBD4680BC70470038024026
:100E140080B400AF044B1B6B034A43F0800313639D
:100E240000BFBD4680BC70470038024080B400AFAC
:100E3400044B1B6B034A43F48053136300BFBD464A
:100E440080BC70470038024080B500AFFFF7EEFF6A
:100E540000F008F8024B01221A7000BF80BD00BFE9
:100E64005000002080B400AF044B9B68034A43F059
:100E74000103936000BFBD4680BC70470030024050
:100E840080B483B000AF7860044B1A687B681A6042
:100E940000BF0C37BD4680BC704700BF0030024025
:100EA40080B487B000AFF8600B467A60FB72134BD6
:100EB4001B78012B01D002231BE0104B00221A7077
:100EC4000023FB82FB7A9BB2FA8A9A4209D2FB8AFC
:100ED400FA6813441A780A4B1A60FB8A0133FB82BE
:100EE400F0E7074B1A687B681A60044B01221A70FA
:100EF400002318461C37BD4680BC704750000020B4
:100F04000030024080B586B000AFF8600B467A60CE
:100F1400FB72144B1B78012B01D002231DE0114BF3
:100F240000221A70FFF79EFF0023FB82FB7A9BB21C
:100F3400FA8A9A4209D2FB8AFA6813441A780A4B4D
:100F44001A60FB8A0133FB82F0E7074B1A687B685F
:100F54001A60044B01221A70002318461837BD4644
:100F640080BD00BF500000200030024080B400AFBC
:100F7400064BDB6803F48033002B0CBF01230023F2
:100F8400DBB21846BD4680BC704700BF003C02403F
:100F940080B582B000AF0023FB71FFF7E7FF034683
:100FA400012B0CBF01230023DBB2002B06D0074B1F
:100FB400074A5A60054B074A5A6001E00223FB7155
:100FC400FB7918460837BD4680BD00BF003C02408F
:100FD40023016745AB89EFCD80B582B000AF002314
:100FE400FB71FFF7C3FF0346012B0CBF0123002352
:100FF400DBB2002B06D0074B1B69064A43F00043C3
:10100400136101E00223FB71FB7918460837BD46E2
:1010140080BD00BF003C024080B582B000AF002319
:10102400FB71FFF7A3FF0346012B0CBF0123002331
:10103400DBB2002B06D0074B074A9A60054B074AE0
:101044009A6001E00223FB71FB7918460837BD461C
:1010540080BD00BF003C02403B2A19087F6E5D4CF6
:1010640080B582B000AF0023FB71FFF77FFF03461A
:10107400012B0CBF01230023DBB2002B06D0074B4E
:101084005B69064A43F00103536101E00223FB71EB
:10109400FB7918460837BD4680BD00BF003C0240BE
:1010A40080B582B000AF0023FB711E4B1B78012B6F
:1010B40006D1FFF75BFF0346012B01D1012300E0BA
:1010C4000023002B27D0174B00221A70FFF760FF74
:1010D400154B1B69144A43F004031361124B1B693B
:1010E400114A43F480331361FFF740FF0346012B99
:1010F40014BF01230023DBB2002B00D0F4E70A4B1A
:101104001B69094A23F004031361FFF765FF054BCC
:1011140001221A7001E00223FB71FB79184608379B
:10112400BD4680BD51000020003C024080B584B023
:1011340000AF78600023FB73314B1B78012B06D181
:10114400FFF714FF0346012B01D1012300E0002324
:10115400002B4ED02A4B00221A70FFF719FF294B9F
:101164001B69284A43F0020313610023BB73BB7B52
:10117400072B2CD87B681B781A46BB7B22FA03F317
:1011840003F00103002B1ED01E4B1B691D4A23F0E4
:10119400780313611B4B1B69BA7BD2001146194AB1
:1011A4000B431361174B1B69164A43F480331361D5
:1011B400FFF7DCFE0346012B14BF01230023DBB23F
:1011C400002B00D0F4E7BB7B0133BB73CFE70D4B9F
:1011D4001B690C4A23F0020313610A4B1B69094A79
:1011E40023F078031361FFF7F7FE054B01221A7011
:1011F40001E00223FB73FB7B18461037BD4680BD1C
:1012040051000020003C024080B58AB000AFF86075
:10121400B9607A60002387F827307F4B1B78012B55
:1012240006D1FFF7A3FE0346012B01D1012300E001
:101234000023002B00F0E780774B00221A70774BD5
:101244001B78032B6ED0032B00F3A180012B02D05B
:10125400022B34D09BE07B6803F00103002B2AD1DE
:101264007B685B087B60FFF793FE6D4B1B696C4AE0
:1012740043F00103136100233B623A6A7B689A429C
:1012840080F0AA803B6A5B00FA681A443B6A5B0000
:10129400B9680B4412881A80FFF768FE0346012BD5
:1012A40014BF01230023DBB2002B00D0F4E73B6A18
:1012B40001333B62E1E7012387F827308CE07B6848
:1012C40003F00303002B29D17B689B087B60FFF7A5
:1012D4005FFE534B1B69524A43F001031361002321
:1012E400FB61FA697B689A4278D2FB699B00FA68D1
:1012F4001A44FB699B00B9680B4412681A60FFF733
:1013040035FE0346012B14BF01230023DBB2002B5F
:1013140000D0F4E7FB690133FB61E2E7012387F8BE
:1013240027305BE07B6803F00703002B2BD17B683D
:10133400DB087B60FFF72CFE394B1B69384A43F00E
:10134400010313610023BB61BA697B689A4247D2E7
:10135400BB69DB00FA681344BA69D200B968114466
:10136400D3E90023C1E90023FFF700FE0346012B64
:1013740014BF01230023DBB2002B00D0F4E7BB69C8
:101384000133BB61E0E7012387F8273028E0FFF74A
:10139400FFFD234B1B69224A43F001031361002321
:1013A4007B617A697B689A421CD2FA687B691A4429
:1013B400B9687B690B4412781A70FFF7D7FD0346AE
:1013C400012B14BF01230023DBB2002B00D0F4E770
:1013D4007B6901337B61E4E700BF04E000BF02E006
:1013E40000BF00E000BF97F82730002B07D10C4B5B
:1013F4001B690B4A23F001031361FFF7EDFD064B54
:1014040001221A7002E0022387F8273097F8273068
:1014140018462837BD4680BD510000207A000020C0
:10142400003C024080B483B000AF7860054B1B6879
:101434001B0ADAB27B681A7000BF0C37BD4680BC49
:10144400704700BF00C0FF1F80B485B000AF786054
:1014540039600023FB733B68FF221A701F4B1B7813
:10146400012B33D11D4B00221A701D4B5B69DB0F1E
:10147400DBB2002B13D01A4B5A697B681B781033EC
:10148400012101FA03F31340002B14BF01230023AD
:10149400DBB2002B16D03B681F221A7012E0104BEF
:1014A4005A697B681B781033012101FA03F3134056
:1014B400002B0CBF01230023DBB2002B02D03B68BE
:1014C4000F221A70054B01221A7001E00223FB73EC
:1014D400FB7B18461437BD4680BC70475100002082
:1014E400003C024080B584B000AF78600023FB73F9
:1014F4003C4B1B78012B06D1FFF738FD0346012B2B
:1015040001D1012300E00023002B64D0354B0022DD
:101514001A70FFF781FD07F10C03184600F0F6F886
:101524003B7B002B28D10023BB73BB7B072B4CD800
:101534007B681B781A46BB7B22FA03F303F0010392
:10154400002B0BD0284B5A69BB7B1033012101FAC5
:1015540003F3DB43244913404B6109E0224B5A69EE
:10156400BB7B1033012101FA03F31F4913434B6181
:10157400BB7B0133BB73D8E700237B737B7B072BD7
:1015840023D87B681B781A467B7B22FA03F303F08B
:101594000103002B0AD0144B5A697B7B10330121C1
:1015A40001FA03F3104913434B610AE00E4B5A69E5
:1015B4007B7B1033012101FA03F3DB430A49134017
:1015C4004B617B7B01337B73D8E7FFF749FD054B08
:1015D40001221A7001E00223FB73FB7B18461037CB
:1015E400BD4680BD51000020003C024080B483B061
:1015F40000AF0346FB710B46BB7113467B71074A70
:10160400FB791370064ABB791370064A7B79137011
:1016140000BF0C37BD4680BC704700BF7800002077
:10162400790000207A00002080B400AF0B4B1B68C7
:101634000B4A12781146094A0B431360074B1B6887
:10164400084A127812021146044A0B431360064BEF
:1016540001221A7000BFBD4680BC7047003C0240A6
:1016640079000020780000205100002080B584B06B
:1016740000AF78600023FB73224B1B78012B06D14B
:10168400FFF774FC0346012B01D1012300E0002382
:10169400002B30D01B4B00221A70FFF7BDFC034611
:1016A400FB73FB7B002B20D17B681B78002B06D1BE
:1016B400154B5B69144A23F00043536105E0124B58
:1016C4005B69114A43F000435361FFF74FFC034643
:1016D400012B14BF01230023DBB2002B00D0F4E75D
:1016E400FFF7BEFC0346FB7301E00223FB73054BCB
:1016F40001221A7001E00223FB73FB7B18461037AA
:10170400BD4680BD51000020003C024080B584B03D
:1017140000AF78600023FB73FFF728FC0346012B1E
:101724000CBF01230023DBB2002B0BD0094B5B69F8
:10173400002B03DA7B6801221A7005E07B68002223
:101744001A7001E00223FB73FB7B18461037BD4679
:1017540080BD00BF003C024080B483B000AF78601D
:10176400084611461A460346FB700B46BB701346E7
:101774007B707B68FA781A707B68BA785A707B68D9
:101784007A789A707B683A7CDA707B683A7D1A7151
:1017940000BF0C37BD4680BC704780B582B000AF37
:1017A40078607B689B684F4A934202D1FFF7EAFA5C
:1017B40026E07B689B684C4A934202D1FFF7F0FA1B
:1017C4001EE07B689B68494A934202D1FFF7F6FA10
:1017D40016E07B689B68464A934202D1FFF7FCFA05
:1017E4000EE07B689B68434A934202D1FFF702FBF9
:1017F40006E07B689B68404A934201D1FFF708FBEF
:101804007B689B681A687B681B7819467B681B7B1E
:101814005B0001FA03F319467B689B680A431A606C
:101824007B681B78002B1ED07B689B685A687B689A
:101834005B7819467B681B7B01FA03F319467B68C6
:101844009B680A435A607B689B689A687B689B78AC
:1018540019467B681B7B5B0001FA03F319467B681E
:101864009B680A439A607B689B68DA687B68DB78CC
:1018740019467B681B7B5B0001FA03F319467B68FE
:101884009B680A43DA607B681B78022B25D17B684E
:101894001B7B072B10D87B689B681A6A7B681B79B3
:1018A40019467B681B7B9B0001FA03F319467B688E
:1018B4009B680A431A6210E07B689B685A6A7B68DB
:1018C4001B7919467B681B7B083B9B0001FA03F3D9
:1018D40019467B689B680A435A6200BF0837BD46B5
:1018E40080BD00BF00000240000402400008024026
:1018F400000C024000100240001C024080B483B07F
:1019040000AF78607B689B681B697A68127B11461C
:1019140001228A401340002B14BF01230023DBB2B1
:10192400002B01D0012300E0002318460C37BD46EC
:1019340080BC704780B483B000AF78600B46FB7006
:10194400FB78002B0ED17B689B689A697B681B7BB4
:101954001033012101FA03F319467B689B680A439B
:101964009A610CE07B689B689A697B681B7B1946CB
:1019740001238B4019467B689B680A439A6100BF28
:101984000C37BD4680BC704790B482B000AF0346AC
:10199400FB710C4B1B68FA795209D4B222469200AF
:1019A4001A441168FA7902F01F02012000FA02F2C7
:1019B4002046800003440A431A6000BF0837BD462E
:1019C40090BC70475400002090B482B000AF03462E
:1019D400FB710D4B5B68FA795209D4B2224692002E
:1019E4001A441268F97901F01F01012000FA01F18B
:1019F4000846214689000B4402431A6000BF083799
:101A0400BD4690BC704700BF5400002090B482B023
:101A140000AF0346FB710D4B9B68FA795209D4B2AF
:101A2400224692001A441268F97901F01F0101203C
:101A340000FA01F10846214689000B4402431A606A
:101A440000BF0837BD4690BC704700BF540000205B
:101A540090B482B000AF0346FB710D4BDB68FA799A
:101A64005209D4B2224692001A441268F97901F05C
:101A74001F01012000FA01F10846214689000B44A8
:101A840002431A6000BF0837BD4690BC704700BFD0
:101A94005400002080B483B000AF0346FB710C4BAC
:101AA4009A68FB795B09DBB29B0013441B68FA79E3
:101AB40002F01F02012101FA02F21340002B14BFAD
:101AC40001230023DBB218460C37BD4680BC7047A7
:101AD4005400002090B482B000AF03460A46FB7164
:101AE4001346BB710C4B5B69FA799208D4B2224657
:101AF40092001A441268B879F97901F0030100FAE6
:101B040001F10846214689000B4402431A6000BFD4
:101B14000837BD4690BC70475400002080B483B0A1
:101B240000AF0346FB710B4B5A69FB799B08DBB290
:101B34009B0013441B68DAB2FB7903F00303012111
:101B440001FA03F3DBB21340DBB218460C37BD468F
:101B540080BC70475400002080B400AF62B6BFF36D
:101B64004F8FBFF36F8F00BFBD4680BC704780B4FA
:101B740000AF72B6BFF34F8FBFF36F8F00BFBD4688
:101B840080BC704780B483B000AF78607B6883F317
:101B94001188BFF34F8FBFF36F8F00BF0C37BD4663
:101BA40080BC704780B400AF044B1B680133034A08
:101BB400136000BFBD4680BC704700BF7C0000209E
:101BC40080B400AF044B1B68034A43F00103136065
:101BD40000BFBD4680BC704710E000E080B400AF99
:101BE400044B1B68034A23F00103136000BFBD4686
:101BF40080BC704710E000E080B483B000AF786030
:101C04007B681B01034A013B536000BF0C37BD4690
:101C140080BC704710E000E080B483B000AF03469E
:101C2400FB71FB79002B06D0084B1B68074A43F075
:101C34000403136005E0054B1B68044A23F0040306
:101C4400136000BF0C37BD4680BC704710E000E055
:101C540080B400AF044B1B68034A43F002031360D3
:101C640000BFBD4680BC704710E000E080B400AF08
:101C7400044B1B68034A23F00203136000BFBD46F4
:101C840080BC704710E000E080B400AF024B1B68DA
:101C94001846BD4680BC70477C00002080B487B0E5
:101CA40000AFF8607B600B46FB721346BB720023E7
:101CB400FB75FB689B7A012B14D1FB68FA7A1A70C6
:101CC400FB68BA7A1A72FB6897F820205A70FB688E
:101CD4007A685A60FB6897F82420DA72FB68BA6A5B
:101CE400DA6001E00223FB75FB7D18461C37BD4614
:101CF40080BC704780B485B000AF78603960002341
:101D0400FB730023BB730A23BB813C4B1B689B689A
:101D140003F48053002B11D1384B1B689B6803F0EC
:101D24008003002B0AD17B681B69DB6803F4004342
:101D3400002B03D17B689B7A002B01D1012300E0A7
:101D44000023002B02D00123FB7350E07B681B6946
:101D540000229A60BB7B2A4ADB0013445B683A6822
:101D64009A4208D0BB7B0133BB73BA7BBB899A42CE
:101D740001DA012300E00023002B00D0EAE7BA7B5C
:101D8400BB899A4213D17B681B699A68032319465D
:101D94007B681B690A439A607B681B699A6868239D
:101DA4001B0119467B681B690A439A601FE07B6824
:101DB4001B699A68BB7B1249DB000B445B78C3F355
:101DC4000313DBB219467B681B690A439A607B687C
:101DD4001B699A68BB7B0A4931F83330C3F30B03A0
:101DE4009BB21B0119467B681B690A439A60FB7B03
:101DF40018461437BD4680BC704700BF882A0008C7
:101E0400E42C000880B58EB002AF7860002387F818
:101E14002F307B689B7A012B40F09C80FEF7A4FF57
:101E240007F11C03022250491846FEF7BFFE07F1D2
:101E34000C0303224C491846FEF7B8FE07F11C00B8
:101E44000723019300230093012300220221FFF7BB
:101E540083FC07F10C000723019300230093012363
:101E640000220221FFF778FC07F11C031846FFF754
:101E740094FC07F10C031846FFF78FFC7B681B6981
:101E8400DA687B681B6942F40052DA607B681B786D
:101E9400012B08D17B681B69DA687B681B6942F4F3
:101EA4008052DA6007E07B681B69DA687B681B692B
:101EB40022F48052DA607B681B7A012B10D17B6894
:101EC4001B69DA687B681B6942F48062DA607B68AC
:101ED4001B69DA687B681B6942F40072DA601CE0F3
:101EE4007B681B7A022B10D17B681B69DA687B68DC
:101EF4001B6942F48062DA607B681B69DA687B687C
:101F04001B6922F40072DA6007E07B681B69DA68F7
:101F14007B681B6922F48062DA607B681B691A693A
:101F24007B681B6922F440521A617B681B691A6939
:101F34007B685B781B0319467B681B690A431A613B
:101F44007B685B6819467868FFF7D4FE034687F818
:101F54002F3002E0022387F82F3097F82F301846ED
:101F64003037BD4680BD00BF0000024080B586B05A
:101F740000AFF860B9607A603B60FB6800229A7237
:101F8400FFF782FE38610023FB750023BB75FB68F5
:101F94001B69DA68FB681B6942F00802DA60FB7DA2
:101FA4005A1CFA751A46BB6813441A78FB681B69F5
:101FB4005A60FB7D7A689A423AD9FFF765FE01467A
:101FC4003A693B681344994205D9FFF75DFE02461E
:101FD4003B6993420ED3FFF757FE02463B69D31A7F
:101FE400013B3A689A4207D2FFF74EFE02463B692C
:101FF400934201D9012300E00023002B01D00323E5
:10200400BB75FB681B691B6803F08003002B14BFBE
:1020140001230023DBB2002BCBD0FB7D5A1CFA75C5
:102024001A46BB6813441A78FB681B695A60C0E7F8
:10203400FB681B691B6803F04003002B0CBF0123E2
:102044000023DBB2002B24D0FFF71EFE01463A69C1
:102054003B681344994205D9FFF716FE02463B69D3
:1020640093420ED3FFF710FE02463B69D31A013B9D
:102074003A689A4207D2FFF707FE02463B69934249
:1020840001D9012300E00023002BD1D00323BB7529
:10209400CEE7FB6801229A72BB7D18461837BD460D
:1020A40080BD80B586B000AFF860B9607A603B60EF
:1020B400FB6800229A72FFF7E7FD38610023FB7585
:1020C4000023BB75FB681B69DA68FB681B6942F077
:1020D4000402DA60FB7D7A689A423BD9FFF7D4FDAB
:1020E40001463A693B681344994205D9FFF7CCFD90
:1020F40002463B6993420ED3FFF7C6FD02463B6995
:10210400D31A013B3A689A4207D2FFF7BDFD024653
:102114003B69934201D9012300E00023002B01D045
:102124000323BB75FB681B691B6803F02003002BAA
:1021340014BF01230023DBB2002BCBD0FB681B6947
:102144005A68FB7D591CF9751946BB680B44D2B219
:102154001A70BFE7FB6801229A72BB7D18461837D4
:10216400BD4680BD80B586B000AFF860B9607A60C6
:102174003B60FB6800229A720023FB757B68B3F511
:10218400807F02D87B68002B02D10123FB753DE0E0
:10219400FB681B69344A93420ED1344B002283F806
:1021A40004217A68B9683148FEF7C1FD7B68DAB268
:1021B4002E4B83F8072129E0FB681B692C4A9342C4
:1021C4000ED12C4B002283F804217A68B96829487F
:1021D400FEF7ADFD7B68DAB2264B83F8072115E0E4
:1021E400FB681B69244A93420ED1244B002283F8D6
:1021F40004217A68B9682148FEF799FD7B68DAB250
:102204001E4B83F8072101E00123FB75FB681B6962
:102214001B6803F08003002B0CBF01230023DBB2F7
:10222400002B00D0F2E7134B93F80431DBB25A1CB5
:10223400D1B2104A82F804111A460E4B9B5CDAB2F2
:10224400FB681B695A602620FFF79EFBFB681B692D
:10225400DA68FB681B6942F0C802DA60FB7D184645
:102264001837BD4680BD00BF00100140BC000020EF
:1022740000440040C401002000140140CC020020AE
:1022840080B586B000AFF860B9607A603B60002327
:10229400FB75FB6800229A727B68B3F5807F08D9CE
:1022A4007B68002B05D1BB68002B02D00123FB7592
:1022B40037E0FB681B69274A93420DD17B68DAB289
:1022C400254B83F80621244B002283F80521224A5A
:1022D400BB68C2F8003124E0FB681B691F4A9342C3
:1022E4000DD17B68DAB21E4B83F806211C4B002209
:1022F40083F805211A4ABB68C2F8003111E0FB6873
:102304001B69184A93420CD17B68DAB2164B83F8E6
:102314000621154B002283F80521134ABB68C2F835
:1023240000312620FFF730FBFB681B69DA68FB6885
:102334001B6942F02002DA60FB681B69DA68FB68FB
:102344001B6942F00402DA60FB7D18461837BD466B
:1023540080BD00BF00100140BC00002000440040CC
:10236400C401002000140140CC02002080B500AF5D
:102374004B4B1B6803F08003002B07D0484BDB68F2
:1023840003F08003002B01D0012300E00023002B85
:102394002BD0444B93F80431DAB2424B93F8073113
:1023A400DBB29A4234BF01230023DBB2002B0FD0EF
:1023B4003C4B93F80431DBB25A1CD1B2394A82F84F
:1023C40004111A46374B9B5CDAB2354B5A6064E011
:1023D400334BDB68324A23F08003D3602620FFF7B7
:1023E400F3FA314B01229A7257E02D4B1B6803F02C
:1023F4002003002B07D02A4BDB6803F02003002BBB
:1024040001D0012300E00023002B46D0254B93F894
:102414000531DBB20133DBB2224A194682F80511D9
:10242400204A92F80621D2B2934234BF01230023FA
:10243400DBB2002B0DD01A4B59681A4BD3F800218C
:10244400184B93F80531DBB2013B1344CAB21A703E
:1024540023E0134B5968134BD3F80021114B93F825
:102464000531DBB2013B1344CAB21A700C4BDB6872
:102474000B4A23F02003D3602620FFF7A5FA0A4B6A
:1024840001229A72084BDB7A002B06D0064BDB68DC
:10249400002B02D0044BDB68984700BF80BD00BF0F
:1024A40000440040C40100208000002080B582B0B8
:1024B40000AF786039607B68012B10D13B684FF620
:1024C400FF7293420BD10849084800F021F80849EB
:1024D400084800F01DF80849084800F019F800BF42
:1024E4000837BD4680BD00BF004400408000002086
:1024F400001001409400002000140140A8000020B6
:1025040080B500AF4FF6FF710120FFF7CFFF80BD0C
:1025140080B483B000AF786039607B6800221A70A1
:102524007B6800225A707B684FF416525A607B68AD
:1025340000221A727B6800225A727B6801229A7206
:102544007B680022DA727B680022DA607B683A6872
:102554001A617B6818460C37BD4680BC704700235F
:0C256400C25C0133002AFBD1581E7047F6
:10257000D826000810000000950100082000000087
:102580002502000830000000F502000840000000AD
:10259000ED0300085000000059050008600000002D
:1025A0007505000870000000D105000880000000DB
:1025B00041070008900000008D0600080080000818
:1025C0000201000000E100E080E100E000E200E044
:1025D00080E200E000E300E000E400E000EF00E063
:1025E000002004E0003C024000380240003002407D
:1025F000000002400004024000080240000C0240BB
:1026000000100240001C0240003C01400038014024
:102610000044004000100140001401400800000088
:1026200000000008004000080080000800C000080A
:10263000000001080000020800000408000006086D
:1026400000ED00E000E100E080E100E000E200E0F9
:1026500080E200E000E300E000E400E000EF00E0E2
:1026600010E000E014E000E018E000E01CE000E012
:1026700008ED00E0000000080080000808080808D5
:10268000083C000000C0FF1F23016745AB89EFCD68
:102690003B2A19087F6E5D4C00400000004000009E
:1026A00000400000004000000000010000000200A7
:1026B0000000020000000200004000000040000096
:1026C0000040000000400000000001000000020087
:1026D00000000200000002005232342E30330009A4
:1026E000002004E0003C024000380240003002407C
:1026F000000002400004024000080240000C0240BA
:1027000000100240001C0240003C01400038014023
:102710000044004000100140001401400800000087
:1027200000000008004000080080000800C0000809
:10273000000001080000020800000408000006086C
:1027400000ED00E000E100E080E100E000E200E0F8
:1027500080E200E000E300E000E400E000EF00E0E1
:1027600010E000E014E000E018E000E01CE000E011
:1027700008ED00E0000000080080000808080808D4
:10278000083C0400002004E0003C02400038024005
:1027900000300240000002400004024000080240F5
:1027A000000C024000100240001C0240003C0140AE
:1027B0000038014000440040001001400014014076
:1027C0000800000000000008004000080080000829
:1027D00000C0000800000108000002080000040812
:1027E0000000060800ED00E000E100E080E100E00C
:1027F00000E200E080E200E000E300E000E400E04E
:1028000000EF00E010E000E014E000E018E000E07D
:102810001CE000E008ED00E0000000080080000877
:1028200008080808083C04000040000000400000C0
:102830000040000000400000000001000000020015
:102840000000020000000200004000000040000004
:1028500000400000004000000000010000000200F5
:10286000000002000000020000C0FF1F23016745B6
:10287000AB89EFCD3B2A19087F6E5D4C4A756D70B0
:10288000696E6720746F20626F6F7420636F6E745F
:10289000726F6C0D0A0000004A756D70696E6720DA
:1028A000746F2075736572206170700D0A000000EE
:1028B00000ED00E000E100E080E100E000E200E087
:1028C00080E200E000E300E000E400E000EF00E070
:1028D00010E000E014E000E018E000E01CE000E0A0
:1028E00008ED00E0002004E0003C02400038024017
:1028F0000030024000000240000402400008024094
:10290000000C024000100240001C0240003C01404C
:102910000038014000440040001001400014014014
:1029200008000000000000080040000800800008C7
:1029300000C00008000001080000020800000408B0
:1029400000000608000000080080000800400000A9
:1029500000400000004000000040000000000100B6
:102960000000020000000200000002000040000021
:102970000040000000400000004000000000010096
:1029800000000200000002000000020000ED00E074
:1029900000E100E080E100E000E200E080E200E031
:1029A00000E300E000E400E000EF00E010E000E001
:1029B00014E000E018E000E01CE000E008ED00E0BA
:1029C000002004E0003C0240003802400030024099
:1029D000000002400004024000080240000C0240D7
:1029E00000100240001C0240003C01400038014041
:1029F00000440040001001400014014008000000A5
:102A000000000008004000080080000800C0000826
:102A10000000010800000208000004080000060889
:102A20000000000800800008002004E0003C024094
:102A30000038024000300240000002400004024022
:102A400000080240000C024000100240001C02403E
:102A5000003C0140003801400044004000100140AB
:102A600000140140080000000000000800400008B9
:102A70000080000800C000080000010800000208F3
:102A8000000004080000060800380240002004E0AE
:102A9000003C02400038024000300240000002408A
:102AA0000004024000080240000C024000100240F6
:102AB000001C0240003C014000380140004400403E
:102AC0000010014000140140080000000000000850
:102AD000004000080080000800C000080000010855
:102AE00000000208000004080000060804000000BE
:102AF00000300240002004E0003C02400038024068
:102B00000030024000000240000402400008024081
:102B1000000C024000100240001C0240003C01403A
:102B20000038014000440040001001400014014002
:102B300008000000000000080040000800800008B5
:102B400000C000080000010800000208000004089E
:102B50000000060800C0FF1F23016745AB89EFCDC9
:102B60003B2A19087F6E5D4C003C0240002004E0C7
:102B7000003C0240003802400030024000000240A9
:102B80000004024000080240000C02400010024015
:102B9000001C0240003C014000380140004400405D
:102BA000001001400014014008000000000000086F
:102BB000004000080080000800C000080000010874
:102BC00000000208000004080000060800ED00E014
:102BD00000E100E080E100E000E200E080E200E0EF
:102BE00000E300E000E400E000EF00E010E000E0BF
:102BF00014E000E018E000E01CE000E008ED00E078
:102C000008080808083C000000ED00E000E100E0D2
:102C100080E100E000E200E080E200E000E300E0AC
:102C200000E400E000EF00E010E000E014E000E06D
:102C300018E000E01CE000E008ED00E010E000E03B
:102C4000002004E0003C0240003802400030024016
:102C5000000002400004024000080240000C024054
:102C600000100240001C0240003C014000380140BE
:102C70000044004000100140001401400800000022
:102C800000000008004000080080000800C00008A4
:102C90000000010800000208000004080000060807
:102CA00000ED00E000E100E080E100E000E200E093
:102CB00080E200E000E300E000E400E000EF00E07C
:102CC00010E000E014E000E018E000E01CE000E0AC
:102CD00008ED00E00000000800800008080808086F
:102CE000083C000041530000B0040000A0B1000007
:102CF00060090000683000008025000034100000EA
:102D0000004B00001A100000009600001160000047
:102D100000E1000008B0000000C201000450000003
:102D200000840300023000000008070001100000CA
:082D300000100E00052500084B
:0400000508000CB52E
:00000001FF
